{
  "contractName": "PlayerBook",
  "abi": [
    {
      "constant": true,
      "inputs": [],
      "name": "teamJust",
      "outputs": [
        {
          "name": "",
          "type": "address"
        }
      ],
      "payable": false,
      "stateMutability": "view",
      "type": "function"
    },
    {
      "constant": true,
      "inputs": [
        {
          "name": "",
          "type": "address"
        }
      ],
      "name": "pIDxAddr_",
      "outputs": [
        {
          "name": "",
          "type": "uint256"
        }
      ],
      "payable": false,
      "stateMutability": "view",
      "type": "function"
    },
    {
      "constant": true,
      "inputs": [],
      "name": "registrationFee_",
      "outputs": [
        {
          "name": "",
          "type": "uint256"
        }
      ],
      "payable": false,
      "stateMutability": "view",
      "type": "function"
    },
    {
      "constant": true,
      "inputs": [
        {
          "name": "",
          "type": "uint256"
        },
        {
          "name": "",
          "type": "bytes32"
        }
      ],
      "name": "plyrNames_",
      "outputs": [
        {
          "name": "",
          "type": "bool"
        }
      ],
      "payable": false,
      "stateMutability": "view",
      "type": "function"
    },
    {
      "constant": true,
      "inputs": [
        {
          "name": "",
          "type": "address"
        }
      ],
      "name": "gameNames_",
      "outputs": [
        {
          "name": "",
          "type": "bytes32"
        }
      ],
      "payable": false,
      "stateMutability": "view",
      "type": "function"
    },
    {
      "constant": true,
      "inputs": [
        {
          "name": "",
          "type": "bytes32"
        }
      ],
      "name": "pIDxName_",
      "outputs": [
        {
          "name": "",
          "type": "uint256"
        }
      ],
      "payable": false,
      "stateMutability": "view",
      "type": "function"
    },
    {
      "constant": true,
      "inputs": [],
      "name": "pID_",
      "outputs": [
        {
          "name": "",
          "type": "uint256"
        }
      ],
      "payable": false,
      "stateMutability": "view",
      "type": "function"
    },
    {
      "constant": true,
      "inputs": [],
      "name": "owner",
      "outputs": [
        {
          "name": "",
          "type": "address"
        }
      ],
      "payable": false,
      "stateMutability": "view",
      "type": "function"
    },
    {
      "constant": true,
      "inputs": [
        {
          "name": "",
          "type": "uint256"
        },
        {
          "name": "",
          "type": "uint256"
        }
      ],
      "name": "plyrNameList_",
      "outputs": [
        {
          "name": "",
          "type": "bytes32"
        }
      ],
      "payable": false,
      "stateMutability": "view",
      "type": "function"
    },
    {
      "constant": true,
      "inputs": [],
      "name": "gID_",
      "outputs": [
        {
          "name": "",
          "type": "uint256"
        }
      ],
      "payable": false,
      "stateMutability": "view",
      "type": "function"
    },
    {
      "constant": true,
      "inputs": [
        {
          "name": "",
          "type": "uint256"
        }
      ],
      "name": "games_",
      "outputs": [
        {
          "name": "",
          "type": "address"
        }
      ],
      "payable": false,
      "stateMutability": "view",
      "type": "function"
    },
    {
      "constant": true,
      "inputs": [
        {
          "name": "",
          "type": "address"
        }
      ],
      "name": "gameIDs_",
      "outputs": [
        {
          "name": "",
          "type": "uint256"
        }
      ],
      "payable": false,
      "stateMutability": "view",
      "type": "function"
    },
    {
      "constant": true,
      "inputs": [
        {
          "name": "",
          "type": "uint256"
        }
      ],
      "name": "plyr_",
      "outputs": [
        {
          "name": "addr",
          "type": "address"
        },
        {
          "name": "name",
          "type": "bytes32"
        },
        {
          "name": "laff",
          "type": "uint256"
        },
        {
          "name": "names",
          "type": "uint256"
        }
      ],
      "payable": false,
      "stateMutability": "view",
      "type": "function"
    },
    {
      "inputs": [],
      "payable": false,
      "stateMutability": "nonpayable",
      "type": "constructor"
    },
    {
      "anonymous": false,
      "inputs": [
        {
          "indexed": true,
          "name": "playerID",
          "type": "uint256"
        },
        {
          "indexed": true,
          "name": "playerAddress",
          "type": "address"
        },
        {
          "indexed": true,
          "name": "playerName",
          "type": "bytes32"
        },
        {
          "indexed": false,
          "name": "isNewPlayer",
          "type": "bool"
        },
        {
          "indexed": false,
          "name": "affiliateID",
          "type": "uint256"
        },
        {
          "indexed": false,
          "name": "affiliateAddress",
          "type": "address"
        },
        {
          "indexed": false,
          "name": "affiliateName",
          "type": "bytes32"
        },
        {
          "indexed": false,
          "name": "amountPaid",
          "type": "uint256"
        },
        {
          "indexed": false,
          "name": "timeStamp",
          "type": "uint256"
        }
      ],
      "name": "onNewName",
      "type": "event"
    },
    {
      "constant": false,
      "inputs": [
        {
          "name": "_whatFunction",
          "type": "bytes32"
        }
      ],
      "name": "deleteAnyProposal",
      "outputs": [],
      "payable": false,
      "stateMutability": "nonpayable",
      "type": "function"
    },
    {
      "constant": true,
      "inputs": [
        {
          "name": "_whatFunction",
          "type": "bytes32"
        }
      ],
      "name": "checkData",
      "outputs": [
        {
          "name": "",
          "type": "bytes32"
        },
        {
          "name": "",
          "type": "uint256"
        }
      ],
      "payable": false,
      "stateMutability": "view",
      "type": "function"
    },
    {
      "constant": true,
      "inputs": [
        {
          "name": "_whatFunction",
          "type": "bytes32"
        },
        {
          "name": "_signerA",
          "type": "uint256"
        },
        {
          "name": "_signerB",
          "type": "uint256"
        },
        {
          "name": "_signerC",
          "type": "uint256"
        }
      ],
      "name": "checkSignersByAddress",
      "outputs": [
        {
          "name": "",
          "type": "address"
        },
        {
          "name": "",
          "type": "address"
        },
        {
          "name": "",
          "type": "address"
        }
      ],
      "payable": false,
      "stateMutability": "view",
      "type": "function"
    },
    {
      "constant": true,
      "inputs": [
        {
          "name": "_whatFunction",
          "type": "bytes32"
        },
        {
          "name": "_signerA",
          "type": "uint256"
        },
        {
          "name": "_signerB",
          "type": "uint256"
        },
        {
          "name": "_signerC",
          "type": "uint256"
        }
      ],
      "name": "checkSignersByName",
      "outputs": [
        {
          "name": "",
          "type": "bytes32"
        },
        {
          "name": "",
          "type": "bytes32"
        },
        {
          "name": "",
          "type": "bytes32"
        }
      ],
      "payable": false,
      "stateMutability": "view",
      "type": "function"
    },
    {
      "constant": false,
      "inputs": [
        {
          "name": "_teamJust",
          "type": "address"
        }
      ],
      "name": "setTeam",
      "outputs": [],
      "payable": false,
      "stateMutability": "nonpayable",
      "type": "function"
    },
    {
      "constant": true,
      "inputs": [
        {
          "name": "_nameStr",
          "type": "string"
        }
      ],
      "name": "checkIfNameValid",
      "outputs": [
        {
          "name": "",
          "type": "bool"
        }
      ],
      "payable": false,
      "stateMutability": "view",
      "type": "function"
    },
    {
      "constant": false,
      "inputs": [
        {
          "name": "_nameString",
          "type": "string"
        },
        {
          "name": "_affCode",
          "type": "uint256"
        },
        {
          "name": "_all",
          "type": "bool"
        }
      ],
      "name": "registerNameXID",
      "outputs": [],
      "payable": true,
      "stateMutability": "payable",
      "type": "function"
    },
    {
      "constant": false,
      "inputs": [
        {
          "name": "_nameString",
          "type": "string"
        },
        {
          "name": "_affCode",
          "type": "address"
        },
        {
          "name": "_all",
          "type": "bool"
        }
      ],
      "name": "registerNameXaddr",
      "outputs": [],
      "payable": true,
      "stateMutability": "payable",
      "type": "function"
    },
    {
      "constant": false,
      "inputs": [
        {
          "name": "_nameString",
          "type": "string"
        },
        {
          "name": "_affCode",
          "type": "bytes32"
        },
        {
          "name": "_all",
          "type": "bool"
        }
      ],
      "name": "registerNameXname",
      "outputs": [],
      "payable": true,
      "stateMutability": "payable",
      "type": "function"
    },
    {
      "constant": false,
      "inputs": [
        {
          "name": "_gameID",
          "type": "uint256"
        }
      ],
      "name": "addMeToGame",
      "outputs": [],
      "payable": false,
      "stateMutability": "nonpayable",
      "type": "function"
    },
    {
      "constant": false,
      "inputs": [],
      "name": "addMeToAllGames",
      "outputs": [],
      "payable": false,
      "stateMutability": "nonpayable",
      "type": "function"
    },
    {
      "constant": false,
      "inputs": [
        {
          "name": "_nameString",
          "type": "string"
        }
      ],
      "name": "useMyOldName",
      "outputs": [],
      "payable": false,
      "stateMutability": "nonpayable",
      "type": "function"
    },
    {
      "constant": false,
      "inputs": [
        {
          "name": "_addr",
          "type": "address"
        }
      ],
      "name": "getPlayerID",
      "outputs": [
        {
          "name": "",
          "type": "uint256"
        }
      ],
      "payable": false,
      "stateMutability": "nonpayable",
      "type": "function"
    },
    {
      "constant": true,
      "inputs": [
        {
          "name": "_pID",
          "type": "uint256"
        }
      ],
      "name": "getPlayerName",
      "outputs": [
        {
          "name": "",
          "type": "bytes32"
        }
      ],
      "payable": false,
      "stateMutability": "view",
      "type": "function"
    },
    {
      "constant": true,
      "inputs": [
        {
          "name": "_pID",
          "type": "uint256"
        }
      ],
      "name": "getPlayerLAff",
      "outputs": [
        {
          "name": "",
          "type": "uint256"
        }
      ],
      "payable": false,
      "stateMutability": "view",
      "type": "function"
    },
    {
      "constant": true,
      "inputs": [
        {
          "name": "_pID",
          "type": "uint256"
        }
      ],
      "name": "getPlayerAddr",
      "outputs": [
        {
          "name": "",
          "type": "address"
        }
      ],
      "payable": false,
      "stateMutability": "view",
      "type": "function"
    },
    {
      "constant": true,
      "inputs": [],
      "name": "getNameFee",
      "outputs": [
        {
          "name": "",
          "type": "uint256"
        }
      ],
      "payable": false,
      "stateMutability": "view",
      "type": "function"
    },
    {
      "constant": false,
      "inputs": [
        {
          "name": "_addr",
          "type": "address"
        },
        {
          "name": "_name",
          "type": "bytes32"
        },
        {
          "name": "_affCode",
          "type": "uint256"
        },
        {
          "name": "_all",
          "type": "bool"
        }
      ],
      "name": "registerNameXIDFromDapp",
      "outputs": [
        {
          "name": "",
          "type": "bool"
        },
        {
          "name": "",
          "type": "uint256"
        }
      ],
      "payable": true,
      "stateMutability": "payable",
      "type": "function"
    },
    {
      "constant": false,
      "inputs": [
        {
          "name": "_addr",
          "type": "address"
        },
        {
          "name": "_name",
          "type": "bytes32"
        },
        {
          "name": "_affCode",
          "type": "address"
        },
        {
          "name": "_all",
          "type": "bool"
        }
      ],
      "name": "registerNameXaddrFromDapp",
      "outputs": [
        {
          "name": "",
          "type": "bool"
        },
        {
          "name": "",
          "type": "uint256"
        }
      ],
      "payable": true,
      "stateMutability": "payable",
      "type": "function"
    },
    {
      "constant": false,
      "inputs": [
        {
          "name": "_addr",
          "type": "address"
        },
        {
          "name": "_name",
          "type": "bytes32"
        },
        {
          "name": "_affCode",
          "type": "bytes32"
        },
        {
          "name": "_all",
          "type": "bool"
        }
      ],
      "name": "registerNameXnameFromDapp",
      "outputs": [
        {
          "name": "",
          "type": "bool"
        },
        {
          "name": "",
          "type": "uint256"
        }
      ],
      "payable": true,
      "stateMutability": "payable",
      "type": "function"
    },
    {
      "constant": false,
      "inputs": [
        {
          "name": "_gameAddress",
          "type": "address"
        },
        {
          "name": "_gameNameStr",
          "type": "bytes32"
        }
      ],
      "name": "addGame",
      "outputs": [],
      "payable": false,
      "stateMutability": "nonpayable",
      "type": "function"
    },
    {
      "constant": false,
      "inputs": [
        {
          "name": "_fee",
          "type": "uint256"
        }
      ],
      "name": "setRegistrationFee",
      "outputs": [],
      "payable": false,
      "stateMutability": "nonpayable",
      "type": "function"
    },
    {
      "constant": true,
      "inputs": [
        {
          "name": "_who",
          "type": "address"
        }
      ],
      "name": "isDev",
      "outputs": [
        {
          "name": "",
          "type": "bool"
        }
      ],
      "payable": false,
      "stateMutability": "view",
      "type": "function"
    }
  ],
  "bytecode": "0x6080604052662386f26fc1000060035534801561001b57600080fd5b5033600e60006101000a81548173ffffffffffffffffffffffffffffffffffffffff021916908373ffffffffffffffffffffffffffffffffffffffff16021790555033600b60006001815260200190815260200160002060000160006101000a81548173ffffffffffffffffffffffffffffffffffffffff021916908373ffffffffffffffffffffffffffffffffffffffff1602179055507f7771000000000000000000000000000000000000000000000000000000000000600b60006001815260200190815260200160002060010181600019169055506001600b600060018152602001908152602001600020600301819055506001600960003373ffffffffffffffffffffffffffffffffffffffff1673ffffffffffffffffffffffffffffffffffffffff168152602001908152602001600020819055506001600a60007f7771000000000000000000000000000000000000000000000000000000000000600019168152602001908152602001600020819055506001600c60006001815260200190815260200160002060007f777100000000000000000000000000000000000000000000000000000000000060001916815260200190815260200160002060006101000a81548160ff0219169083151502179055507f7771000000000000000000000000000000000000000000000000000000000000600d60006001815260200190815260200160002060006001815260200190815260200160002081600019169055506001600881905550336000806101000a81548173ffffffffffffffffffffffffffffffffffffffff021916908373ffffffffffffffffffffffffffffffffffffffff16021790555061582f806200029b6000396000f3006080604052600436106101c2576000357c0100000000000000000000000000000000000000000000000000000000900463ffffffff168063095cf5c6146101c75780630c3f64bf1461020a5780630c6940ea146102655780630efcf2951461027c5780630f3bd3fd146102ad57806310f01eba14610304578063180603eb1461035b5780632614195f146103865780632660316e146103b157806327249e61146104045780632e19ebdc146104635780633ddd4698146104a85780634b227176146105305780634d0d35ff1461055b578063685ffd83146105c85780636c52660d1461063e578063745ea0c1146106bf578063768f930d1461073c57806381c5b2061461083157806382e37b2c1461085e5780638da5cb5b146108a7578063921dec21146108fe578063a448ed4b14610970578063a553506e146109c3578063aa4d490b14610a17578063b929129614610aa6578063b9eca0c814610b0f578063c0942dfd14610b3a578063c320c72714610bb3578063c91317f414610be0578063d524127914610c31578063dbbcaa9714610c9e578063de7874f314610cf5578063e3c08adf14610d7f578063e56556a914610dc0578063ed3643d614610e17575b600080fd5b3480156101d357600080fd5b50610208600480360381019080803573ffffffffffffffffffffffffffffffffffffffff169060200190929190505050610ea0565b005b34801561021657600080fd5b5061024b600480360381019080803573ffffffffffffffffffffffffffffffffffffffff16906020019092919050505061106f565b604051808215151515815260200191505060405180910390f35b34801561027157600080fd5b5061027a611170565b005b34801561028857600080fd5b506102ab600480360381019080803560001916906020019092919050505061156d565b005b3480156102b957600080fd5b506102c26116ee565b604051808273ffffffffffffffffffffffffffffffffffffffff1673ffffffffffffffffffffffffffffffffffffffff16815260200191505060405180910390f35b34801561031057600080fd5b50610345600480360381019080803573ffffffffffffffffffffffffffffffffffffffff169060200190929190505050611714565b6040518082815260200191505060405180910390f35b34801561036757600080fd5b5061037061172c565b6040518082815260200191505060405180910390f35b34801561039257600080fd5b5061039b611732565b6040518082815260200191505060405180910390f35b3480156103bd57600080fd5b506103ea60048036038101908080359060200190929190803560001916906020019092919050505061173c565b604051808215151515815260200191505060405180910390f35b34801561041057600080fd5b50610445600480360381019080803573ffffffffffffffffffffffffffffffffffffffff16906020019092919050505061176b565b60405180826000191660001916815260200191505060405180910390f35b34801561046f57600080fd5b506104926004803603810190808035600019169060200190929190505050611783565b6040518082815260200191505060405180910390f35b61052e600480360381019080803590602001908201803590602001908080601f0160208091040260200160405190810160405280939291908181526020018383808284378201915050505050509192919290803573ffffffffffffffffffffffffffffffffffffffff16906020019092919080351515906020019092919050505061179b565b005b34801561053c57600080fd5b50610545611a26565b6040518082815260200191505060405180910390f35b34801561056757600080fd5b5061058660048036038101908080359060200190929190505050611a2c565b604051808273ffffffffffffffffffffffffffffffffffffffff1673ffffffffffffffffffffffffffffffffffffffff16815260200191505060405180910390f35b61063c600480360381019080803590602001908201803590602001908080601f01602080910402602001604051908101604052809392919081815260200183838082843782019150505050505091929192908035600019169060200190929190803515159060200190929190505050611a6c565b005b34801561064a57600080fd5b506106a5600480360381019080803590602001908201803590602001908080601f0160208091040260200160405190810160405280939291908181526020018383808284378201915050505050509192919290505050611c87565b604051808215151515815260200191505060405180910390f35b61071b600480360381019080803573ffffffffffffffffffffffffffffffffffffffff16906020019092919080356000191690602001909291908035600019169060200190929190803515159060200190929190505050611ccd565b60405180831515151581526020018281526020019250505060405180910390f35b34801561074857600080fd5b506107896004803603810190808035600019169060200190929190803590602001909291908035906020019092919080359060200190929190505050611eac565b604051808473ffffffffffffffffffffffffffffffffffffffff1673ffffffffffffffffffffffffffffffffffffffff1681526020018373ffffffffffffffffffffffffffffffffffffffff1673ffffffffffffffffffffffffffffffffffffffff1681526020018273ffffffffffffffffffffffffffffffffffffffff1673ffffffffffffffffffffffffffffffffffffffff168152602001935050505060405180910390f35b34801561083d57600080fd5b5061085c60048036038101908080359060200190929190505050612058565b005b34801561086a57600080fd5b50610889600480360381019080803590602001909291905050506124cb565b60405180826000191660001916815260200191505060405180910390f35b3480156108b357600080fd5b506108bc6124eb565b604051808273ffffffffffffffffffffffffffffffffffffffff1673ffffffffffffffffffffffffffffffffffffffff16815260200191505060405180910390f35b61096e600480360381019080803590602001908201803590602001908080601f016020809104026020016040519081016040528093929190818152602001838380828437820191505050505050919291929080359060200190929190803515159060200190929190505050612511565b005b34801561097c57600080fd5b506109a56004803603810190808035906020019092919080359060200190929190505050612713565b60405180826000191660001916815260200191505060405180910390f35b3480156109cf57600080fd5b506109f26004803603810190808035600019169060200190929190505050612738565b6040518083600019166000191681526020018281526020019250505060405180910390f35b610a85600480360381019080803573ffffffffffffffffffffffffffffffffffffffff1690602001909291908035600019169060200190929190803573ffffffffffffffffffffffffffffffffffffffff1690602001909291908035151590602001909291905050506128cd565b60405180831515151581526020018281526020019250505060405180910390f35b348015610ab257600080fd5b50610b0d600480360381019080803590602001908201803590602001908080601f0160208091040260200160405190810160405280939291908181526020018383808284378201915050505050509192919290505050612b1c565b005b348015610b1b57600080fd5b50610b24612cc9565b6040518082815260200191505060405180910390f35b610b92600480360381019080803573ffffffffffffffffffffffffffffffffffffffff169060200190929190803560001916906020019092919080359060200190929190803515159060200190929190505050612ccf565b60405180831515151581526020018281526020019250505060405180910390f35b348015610bbf57600080fd5b50610bde60048036038101908080359060200190929190505050612e9b565b005b348015610bec57600080fd5b50610c2f600480360381019080803573ffffffffffffffffffffffffffffffffffffffff1690602001909291908035600019169060200190929190505050613077565b005b348015610c3d57600080fd5b50610c5c60048036038101908080359060200190929190505050613424565b604051808273ffffffffffffffffffffffffffffffffffffffff1673ffffffffffffffffffffffffffffffffffffffff16815260200191505060405180910390f35b348015610caa57600080fd5b50610cdf600480360381019080803573ffffffffffffffffffffffffffffffffffffffff169060200190929190505050613457565b6040518082815260200191505060405180910390f35b348015610d0157600080fd5b50610d206004803603810190808035906020019092919050505061346f565b604051808573ffffffffffffffffffffffffffffffffffffffff1673ffffffffffffffffffffffffffffffffffffffff168152602001846000191660001916815260200183815260200182815260200194505050505060405180910390f35b348015610d8b57600080fd5b50610daa600480360381019080803590602001909291905050506134bf565b6040518082815260200191505060405180910390f35b348015610dcc57600080fd5b50610e01600480360381019080803573ffffffffffffffffffffffffffffffffffffffff1690602001909291905050506134df565b6040518082815260200191505060405180910390f35b348015610e2357600080fd5b50610e646004803603810190808035600019169060200190929190803590602001909291908035906020019092919080359060200190929190505050613580565b60405180846000191660001916815260200183600019166000191681526020018260001916600019168152602001935050505060405180910390f35b600e60009054906101000a900473ffffffffffffffffffffffffffffffffffffffff1673ffffffffffffffffffffffffffffffffffffffff163373ffffffffffffffffffffffffffffffffffffffff16141515610f65576040517f08c379a00000000000000000000000000000000000000000000000000000000081526004018080602001828103825260098152602001807f6f6e6c792064657621000000000000000000000000000000000000000000000081525060200191505060405180910390fd5b600073ffffffffffffffffffffffffffffffffffffffff16600160009054906101000a900473ffffffffffffffffffffffffffffffffffffffff1673ffffffffffffffffffffffffffffffffffffffff1614151561102b576040517f08c379a000000000000000000000000000000000000000000000000000000000815260040180806020018281038252600c8152602001807f616c72656164792073657421000000000000000000000000000000000000000081525060200191505060405180910390fd5b80600160006101000a81548173ffffffffffffffffffffffffffffffffffffffff021916908373ffffffffffffffffffffffffffffffffffffffff16021790555050565b6000600160009054906101000a900473ffffffffffffffffffffffffffffffffffffffff1673ffffffffffffffffffffffffffffffffffffffff16630c3f64bf836040518263ffffffff167c0100000000000000000000000000000000000000000000000000000000028152600401808273ffffffffffffffffffffffffffffffffffffffff1673ffffffffffffffffffffffffffffffffffffffff168152602001915050602060405180830381600087803b15801561112e57600080fd5b505af1158015611142573d6000803e3d6000fd5b505050506040513d602081101561115857600080fd5b81019080805190602001909291905050509050919050565b6000806000806000806000806000339150813b90506000811415156111fd576040517f08c379a00000000000000000000000000000000000000000000000000000000081526004018080602001828103825260118152602001807f736f7272792068756d616e73206f6e6c7900000000000000000000000000000081525060200191505060405180910390fd5b339850600960008a73ffffffffffffffffffffffffffffffffffffffff1673ffffffffffffffffffffffffffffffffffffffff168152602001908152602001600020549750600088141515156112e1576040517f08c379a000000000000000000000000000000000000000000000000000000000815260040180806020018281038252602e8152602001807f6865792074686572652062756464792c20796f7520646f6e74206576656e206881526020017f61766520616e206163636f756e7400000000000000000000000000000000000081525060400191505060405180910390fd5b600b6000898152602001908152602001600020600201549650600b6000898152602001908152602001600020600301549550600b6000898152602001908152602001600020600101549450600193505b60075484111515611562576004600085815260200190815260200160002060009054906101000a900473ffffffffffffffffffffffffffffffffffffffff1673ffffffffffffffffffffffffffffffffffffffff166349cc635d898b888b6040518563ffffffff167c0100000000000000000000000000000000000000000000000000000000028152600401808581526020018473ffffffffffffffffffffffffffffffffffffffff1673ffffffffffffffffffffffffffffffffffffffff1681526020018360001916600019168152602001828152602001945050505050600060405180830381600087803b15801561142a57600080fd5b505af115801561143e573d6000803e3d6000fd5b50505050600186111561155557600192505b8583111515611554576004600085815260200190815260200160002060009054906101000a900473ffffffffffffffffffffffffffffffffffffffff1673ffffffffffffffffffffffffffffffffffffffff16638f7140ea89600d60008c81526020019081526020016000206000878152602001908152602001600020546040518363ffffffff167c010000000000000000000000000000000000000000000000000000000002815260040180838152602001826000191660001916815260200192505050600060405180830381600087803b15801561152f57600080fd5b505af1158015611543573d6000803e3d6000fd5b505050508280600101935050611450565b5b8380600101945050611331565b505050505050505050565b60011515600160009054906101000a900473ffffffffffffffffffffffffffffffffffffffff1673ffffffffffffffffffffffffffffffffffffffff16630c3f64bf336040518263ffffffff167c0100000000000000000000000000000000000000000000000000000000028152600401808273ffffffffffffffffffffffffffffffffffffffff1673ffffffffffffffffffffffffffffffffffffffff168152602001915050602060405180830381600087803b15801561162e57600080fd5b505af1158015611642573d6000803e3d6000fd5b505050506040513d602081101561165857600080fd5b810190808051906020019092919050505015151415156116e0576040517f08c379a00000000000000000000000000000000000000000000000000000000081526004018080602001828103825260178152602001807f6d73672073656e646572206973206e6f7420612064657600000000000000000081525060200191505060405180910390fd5b6116eb600282613a11565b50565b600160009054906101000a900473ffffffffffffffffffffffffffffffffffffffff1681565b60096020528060005260406000206000915090505481565b60035481565b6000600354905090565b600c6020528160005260406000206020528060005260406000206000915091509054906101000a900460ff1681565b60056020528060005260406000206000915090505481565b600a6020528060005260406000206000915090505481565b6000806000806000806000339150813b9050600081141515611825576040517f08c379a00000000000000000000000000000000000000000000000000000000081526004018080602001828103825260118152602001807f736f7272792068756d616e73206f6e6c7900000000000000000000000000000081525060200191505060405180910390fd5b60035434101515156118c5576040517f08c379a00000000000000000000000000000000000000000000000000000000081526004018080602001828103825260268152602001807f756d6d2e2e2e2e2e2020796f75206861766520746f2070617920746865206e6181526020017f6d6520666565000000000000000000000000000000000000000000000000000081525060400191505060405180910390fd5b6118ce8a613ba7565b96503395506118dc86614b29565b9450600960008773ffffffffffffffffffffffffffffffffffffffff1673ffffffffffffffffffffffffffffffffffffffff168152602001908152602001600020549350600073ffffffffffffffffffffffffffffffffffffffff168973ffffffffffffffffffffffffffffffffffffffff161415801561198957508573ffffffffffffffffffffffffffffffffffffffff168973ffffffffffffffffffffffffffffffffffffffff1614155b15611a0c57600960008a73ffffffffffffffffffffffffffffffffffffffff1673ffffffffffffffffffffffffffffffffffffffff168152602001908152602001600020549250600b60008581526020019081526020016000206002015483141515611a0b5782600b6000868152602001908152602001600020600201819055505b5b611a1a8487858a898d614c34565b50505050505050505050565b60085481565b6000600b600083815260200190815260200160002060000160009054906101000a900473ffffffffffffffffffffffffffffffffffffffff169050919050565b6000806000806000806000339150813b9050600081141515611af6576040517f08c379a00000000000000000000000000000000000000000000000000000000081526004018080602001828103825260118152602001807f736f7272792068756d616e73206f6e6c7900000000000000000000000000000081525060200191505060405180910390fd5b6003543410151515611b96576040517f08c379a00000000000000000000000000000000000000000000000000000000081526004018080602001828103825260268152602001807f756d6d2e2e2e2e2e2020796f75206861766520746f2070617920746865206e6181526020017f6d6520666565000000000000000000000000000000000000000000000000000081525060400191505060405180910390fd5b611b9f8a613ba7565b9650339550611bad86614b29565b9450600960008773ffffffffffffffffffffffffffffffffffffffff1673ffffffffffffffffffffffffffffffffffffffff1681526020019081526020016000205493506000896000191614158015611c0e57508660001916896000191614155b15611c6d57600a60008a60001916600019168152602001908152602001600020549250600b60008581526020019081526020016000206002015483141515611c6c5782600b6000868152602001908152602001600020600201819055505b5b611c7b8487858a898d614c34565b50505050505050505050565b600080611c9383613ba7565b90506000600a60008360001916600019168152602001908152602001600020541415611cc25760019150611cc7565b600091505b50919050565b600080600080600080600660003373ffffffffffffffffffffffffffffffffffffffff1673ffffffffffffffffffffffffffffffffffffffff1681526020019081526020016000205414151515611d2357600080fd5b6003543410151515611dc3576040517f08c379a00000000000000000000000000000000000000000000000000000000081526004018080602001828103825260268152602001807f756d6d2e2e2e2e2e2020796f75206861766520746f2070617920746865206e6181526020017f6d6520666565000000000000000000000000000000000000000000000000000081525060400191505060405180910390fd5b611dcc89614b29565b9250600960008a73ffffffffffffffffffffffffffffffffffffffff1673ffffffffffffffffffffffffffffffffffffffff1681526020019081526020016000205491506000876000191614158015611e2d57508760001916876000191614155b15611e8c57600a60008860001916600019168152602001908152602001600020549050600b60008381526020019081526020016000206002015481141515611e8b5780600b6000848152602001908152602001600020600201819055505b5b611e9a828a838b878b614c34565b82819450945050505094509492505050565b600080600060011515600160009054906101000a900473ffffffffffffffffffffffffffffffffffffffff1673ffffffffffffffffffffffffffffffffffffffff16630c3f64bf336040518263ffffffff167c0100000000000000000000000000000000000000000000000000000000028152600401808273ffffffffffffffffffffffffffffffffffffffff1673ffffffffffffffffffffffffffffffffffffffff168152602001915050602060405180830381600087803b158015611f7257600080fd5b505af1158015611f86573d6000803e3d6000fd5b505050506040513d6020811015611f9c57600080fd5b81019080805190602001909291905050501515141515612024576040517f08c379a00000000000000000000000000000000000000000000000000000000081526004018080602001828103825260178152602001807f6d73672073656e646572206973206e6f7420612064657600000000000000000081525060200191505060405180910390fd5b612030600288886150fd565b61203c600289886150fd565b61204860028a886150fd565b9250925092509450945094915050565b600080600080600080339150813b90506000811415156120e0576040517f08c379a00000000000000000000000000000000000000000000000000000000081526004018080602001828103825260118152602001807f736f7272792068756d616e73206f6e6c7900000000000000000000000000000081525060200191505060405180910390fd5b6007548711151515612180576040517f08c379a00000000000000000000000000000000000000000000000000000000081526004018080602001828103825260298152602001807f73696c6c7920706c617965722c20746861742067616d6520646f65736e27742081526020017f657869737420796574000000000000000000000000000000000000000000000081525060400191505060405180910390fd5b339550600960008773ffffffffffffffffffffffffffffffffffffffff1673ffffffffffffffffffffffffffffffffffffffff16815260200190815260200160002054945060008514151515612264576040517f08c379a000000000000000000000000000000000000000000000000000000000815260040180806020018281038252602e8152602001807f6865792074686572652062756464792c20796f7520646f6e74206576656e206881526020017f61766520616e206163636f756e7400000000000000000000000000000000000081525060400191505060405180910390fd5b600b60008681526020019081526020016000206003015493506004600088815260200190815260200160002060009054906101000a900473ffffffffffffffffffffffffffffffffffffffff1673ffffffffffffffffffffffffffffffffffffffff166349cc635d8688600b60008a815260200190815260200160002060010154600b60008b8152602001908152602001600020600201546040518563ffffffff167c0100000000000000000000000000000000000000000000000000000000028152600401808581526020018473ffffffffffffffffffffffffffffffffffffffff1673ffffffffffffffffffffffffffffffffffffffff1681526020018360001916600019168152602001828152602001945050505050600060405180830381600087803b15801561239757600080fd5b505af11580156123ab573d6000803e3d6000fd5b5050505060018411156124c257600192505b83831115156124c1576004600088815260200190815260200160002060009054906101000a900473ffffffffffffffffffffffffffffffffffffffff1673ffffffffffffffffffffffffffffffffffffffff16638f7140ea86600d60008981526020019081526020016000206000878152602001908152602001600020546040518363ffffffff167c010000000000000000000000000000000000000000000000000000000002815260040180838152602001826000191660001916815260200192505050600060405180830381600087803b15801561249c57600080fd5b505af11580156124b0573d6000803e3d6000fd5b5050505082806001019350506123bd565b5b50505050505050565b6000600b6000838152602001908152602001600020600101549050919050565b600e60009054906101000a900473ffffffffffffffffffffffffffffffffffffffff1681565b600080600080600080339150813b9050600081141515612599576040517f08c379a00000000000000000000000000000000000000000000000000000000081526004018080602001828103825260118152602001807f736f7272792068756d616e73206f6e6c7900000000000000000000000000000081525060200191505060405180910390fd5b6003543410151515612639576040517f08c379a00000000000000000000000000000000000000000000000000000000081526004018080602001828103825260268152602001807f756d6d2e2e2e2e2e2020796f75206861766520746f2070617920746865206e6181526020017f6d6520666565000000000000000000000000000000000000000000000000000081525060400191505060405180910390fd5b61264289613ba7565b955033945061265085614b29565b9350600960008673ffffffffffffffffffffffffffffffffffffffff1673ffffffffffffffffffffffffffffffffffffffff168152602001908152602001600020549250600088141580156126bb5750600b6000848152602001908152602001600020600201548814155b80156126c75750828814155b156126ec5787600b6000858152602001908152602001600020600201819055506126fa565b828814156126f957600097505b5b61270883868a89888c614c34565b505050505050505050565b600d602052816000526040600020602052806000526040600020600091509150505481565b60008060011515600160009054906101000a900473ffffffffffffffffffffffffffffffffffffffff1673ffffffffffffffffffffffffffffffffffffffff16630c3f64bf336040518263ffffffff167c0100000000000000000000000000000000000000000000000000000000028152600401808273ffffffffffffffffffffffffffffffffffffffff1673ffffffffffffffffffffffffffffffffffffffff168152602001915050602060405180830381600087803b1580156127fc57600080fd5b505af1158015612810573d6000803e3d6000fd5b505050506040513d602081101561282657600080fd5b810190808051906020019092919050505015151415156128ae576040517f08c379a00000000000000000000000000000000000000000000000000000000081526004018080602001828103825260178152602001807f6d73672073656e646572206973206e6f7420612064657600000000000000000081525060200191505060405180910390fd5b6128b9600284615208565b6128c4600285615240565b91509150915091565b600080600080600080600660003373ffffffffffffffffffffffffffffffffffffffff1673ffffffffffffffffffffffffffffffffffffffff168152602001908152602001600020541415151561292357600080fd5b60035434101515156129c3576040517f08c379a00000000000000000000000000000000000000000000000000000000081526004018080602001828103825260268152602001807f756d6d2e2e2e2e2e2020796f75206861766520746f2070617920746865206e6181526020017f6d6520666565000000000000000000000000000000000000000000000000000081525060400191505060405180910390fd5b6129cc89614b29565b9250600960008a73ffffffffffffffffffffffffffffffffffffffff1673ffffffffffffffffffffffffffffffffffffffff168152602001908152602001600020549150600073ffffffffffffffffffffffffffffffffffffffff168773ffffffffffffffffffffffffffffffffffffffff1614158015612a7957508873ffffffffffffffffffffffffffffffffffffffff168773ffffffffffffffffffffffffffffffffffffffff1614155b15612afc57600960008873ffffffffffffffffffffffffffffffffffffffff1673ffffffffffffffffffffffffffffffffffffffff168152602001908152602001600020549050600b60008381526020019081526020016000206002015481141515612afb5780600b6000848152602001908152602001600020600201819055505b5b612b0a828a838b878b614c34565b82819450945050505094509492505050565b600080600080339150813b9050600081141515612ba1576040517f08c379a00000000000000000000000000000000000000000000000000000000081526004018080602001828103825260118152602001807f736f7272792068756d616e73206f6e6c7900000000000000000000000000000081525060200191505060405180910390fd5b612baa85613ba7565b9350600960003373ffffffffffffffffffffffffffffffffffffffff1673ffffffffffffffffffffffffffffffffffffffff16815260200190815260200160002054925060011515600c60008581526020019081526020016000206000866000191660001916815260200190815260200160002060009054906101000a900460ff161515141515612ca3576040517f08c379a000000000000000000000000000000000000000000000000000000000815260040180806020018281038252601f8152602001807f756d6d2e2e2e207468617473206e6f742061206e616d6520796f75206f776e0081525060200191505060405180910390fd5b83600b600085815260200190815260200160002060010181600019169055505050505050565b60075481565b600080600080600080600660003373ffffffffffffffffffffffffffffffffffffffff1673ffffffffffffffffffffffffffffffffffffffff1681526020019081526020016000205414151515612d2557600080fd5b6003543410151515612dc5576040517f08c379a00000000000000000000000000000000000000000000000000000000081526004018080602001828103825260268152602001807f756d6d2e2e2e2e2e2020796f75206861766520746f2070617920746865206e6181526020017f6d6520666565000000000000000000000000000000000000000000000000000081525060400191505060405180910390fd5b612dce89614b29565b9250600960008a73ffffffffffffffffffffffffffffffffffffffff1673ffffffffffffffffffffffffffffffffffffffff16815260200190815260200160002054915086905060008114158015612e3c5750600b6000838152602001908152602001600020600201548114155b8015612e485750818114155b15612e6d5780600b600084815260200190815260200160002060020181905550612e7b565b81811415612e7a57600090505b5b612e89828a838b878b614c34565b82819450945050505094509492505050565b60011515600160009054906101000a900473ffffffffffffffffffffffffffffffffffffffff1673ffffffffffffffffffffffffffffffffffffffff16630c3f64bf336040518263ffffffff167c0100000000000000000000000000000000000000000000000000000000028152600401808273ffffffffffffffffffffffffffffffffffffffff1673ffffffffffffffffffffffffffffffffffffffff168152602001915050602060405180830381600087803b158015612f5c57600080fd5b505af1158015612f70573d6000803e3d6000fd5b505050506040513d6020811015612f8657600080fd5b8101908080519060200190929190505050151514151561300e576040517f08c379a00000000000000000000000000000000000000000000000000000000081526004018080602001828103825260178152602001807f6d73672073656e646572206973206e6f7420612064657600000000000000000081525060200191505060405180910390fd5b6001151561303b7f736574526567697374726174696f6e4665650000000000000000000000000000615278565b151514156130745761306c7f736574526567697374726174696f6e466565000000000000000000000000000061534d565b806003819055505b50565b600060011515600160009054906101000a900473ffffffffffffffffffffffffffffffffffffffff1673ffffffffffffffffffffffffffffffffffffffff16630c3f64bf336040518263ffffffff167c0100000000000000000000000000000000000000000000000000000000028152600401808273ffffffffffffffffffffffffffffffffffffffff1673ffffffffffffffffffffffffffffffffffffffff168152602001915050602060405180830381600087803b15801561313a57600080fd5b505af115801561314e573d6000803e3d6000fd5b505050506040513d602081101561316457600080fd5b810190808051906020019092919050505015151415156131ec576040517f08c379a00000000000000000000000000000000000000000000000000000000081526004018080602001828103825260178152602001807f6d73672073656e646572206973206e6f7420612064657600000000000000000081525060200191505060405180910390fd5b6000600660008573ffffffffffffffffffffffffffffffffffffffff1673ffffffffffffffffffffffffffffffffffffffff168152602001908152602001600020541415156132c9576040517f08c379a00000000000000000000000000000000000000000000000000000000081526004018080602001828103825260288152602001807f646572702c20746861742067616d657320616c7265616479206265656e20726581526020017f676973746572656400000000000000000000000000000000000000000000000081525060400191505060405180910390fd5b600115156132f67f61646447616d6500000000000000000000000000000000000000000000000000615278565b1515141561341f576133277f61646447616d650000000000000000000000000000000000000000000000000061534d565b600760008154809291906001019190505550819050600754600660008573ffffffffffffffffffffffffffffffffffffffff1673ffffffffffffffffffffffffffffffffffffffff1681526020019081526020016000208190555080600560008573ffffffffffffffffffffffffffffffffffffffff1673ffffffffffffffffffffffffffffffffffffffff16815260200190815260200160002081600019169055508260046000600754815260200190815260200160002060006101000a81548173ffffffffffffffffffffffffffffffffffffffff021916908373ffffffffffffffffffffffffffffffffffffffff1602179055505b505050565b60046020528060005260406000206000915054906101000a900473ffffffffffffffffffffffffffffffffffffffff1681565b60066020528060005260406000206000915090505481565b600b6020528060005260406000206000915090508060000160009054906101000a900473ffffffffffffffffffffffffffffffffffffffff16908060010154908060020154908060030154905084565b6000600b6000838152602001908152602001600020600201549050919050565b600080600660003373ffffffffffffffffffffffffffffffffffffffff1673ffffffffffffffffffffffffffffffffffffffff168152602001908152602001600020541415151561352f57600080fd5b61353882614b29565b50600960008373ffffffffffffffffffffffffffffffffffffffff1673ffffffffffffffffffffffffffffffffffffffff168152602001908152602001600020549050919050565b600080600060011515600160009054906101000a900473ffffffffffffffffffffffffffffffffffffffff1673ffffffffffffffffffffffffffffffffffffffff16630c3f64bf336040518263ffffffff167c0100000000000000000000000000000000000000000000000000000000028152600401808273ffffffffffffffffffffffffffffffffffffffff1673ffffffffffffffffffffffffffffffffffffffff168152602001915050602060405180830381600087803b15801561364657600080fd5b505af115801561365a573d6000803e3d6000fd5b505050506040513d602081101561367057600080fd5b810190808051906020019092919050505015151415156136f8576040517f08c379a00000000000000000000000000000000000000000000000000000000081526004018080602001828103825260178152602001807f6d73672073656e646572206973206e6f7420612064657600000000000000000081525060200191505060405180910390fd5b600160009054906101000a900473ffffffffffffffffffffffffffffffffffffffff1673ffffffffffffffffffffffffffffffffffffffff1663af1c084d61374260028a8a6150fd565b6040518263ffffffff167c0100000000000000000000000000000000000000000000000000000000028152600401808273ffffffffffffffffffffffffffffffffffffffff1673ffffffffffffffffffffffffffffffffffffffff168152602001915050602060405180830381600087803b1580156137c057600080fd5b505af11580156137d4573d6000803e3d6000fd5b505050506040513d60208110156137ea57600080fd5b8101908080519060200190929190505050600160009054906101000a900473ffffffffffffffffffffffffffffffffffffffff1673ffffffffffffffffffffffffffffffffffffffff1663af1c084d61384560028b8a6150fd565b6040518263ffffffff167c0100000000000000000000000000000000000000000000000000000000028152600401808273ffffffffffffffffffffffffffffffffffffffff1673ffffffffffffffffffffffffffffffffffffffff168152602001915050602060405180830381600087803b1580156138c357600080fd5b505af11580156138d7573d6000803e3d6000fd5b505050506040513d60208110156138ed57600080fd5b8101908080519060200190929190505050600160009054906101000a900473ffffffffffffffffffffffffffffffffffffffff1673ffffffffffffffffffffffffffffffffffffffff1663af1c084d61394860028c8a6150fd565b6040518263ffffffff167c0100000000000000000000000000000000000000000000000000000000028152600401808273ffffffffffffffffffffffffffffffffffffffff1673ffffffffffffffffffffffffffffffffffffffff168152602001915050602060405180830381600087803b1580156139c657600080fd5b505af11580156139da573d6000803e3d6000fd5b505050506040513d60208110156139f057600080fd5b81019080805190602001909291905050509250925092509450945094915050565b6000806000613a1f8461535b565b9250600090505b846000016000846000191660001916815260200190815260200160002060010154811015613b70578460000160008460001916600019168152602001908152602001600020600301600082815260200190815260200160002060009054906101000a900473ffffffffffffffffffffffffffffffffffffffff169150846000016000846000191660001916815260200190815260200160002060020160008373ffffffffffffffffffffffffffffffffffffffff1673ffffffffffffffffffffffffffffffffffffffff16815260200190815260200160002060006101000a81549060ff02191690558460000160008460001916600019168152602001908152602001600020600301600082815260200190815260200160002060006101000a81549073ffffffffffffffffffffffffffffffffffffffff02191690558080600101915050613a26565b8460000160008460001916600019168152602001908152602001600020600080820160009055600182016000905550505050505050565b600060606000806000808694508451935060208411158015613bc95750600084115b1515613c63576040517f08c379a000000000000000000000000000000000000000000000000000000000815260040180806020018281038252602a8152602001807f737472696e67206d757374206265206265747765656e203120616e642033322081526020017f636861726163746572730000000000000000000000000000000000000000000081525060400191505060405180910390fd5b60207f010000000000000000000000000000000000000000000000000000000000000002856000815181101515613c9657fe5b9060200101517f010000000000000000000000000000000000000000000000000000000000000090047f0100000000000000000000000000000000000000000000000000000000000000027effffffffffffffffffffffffffffffffffffffffffffffffffffffffffffff191614158015613db1575060207f0100000000000000000000000000000000000000000000000000000000000000028560018603815181101515613d4157fe5b9060200101517f010000000000000000000000000000000000000000000000000000000000000090047f0100000000000000000000000000000000000000000000000000000000000000027effffffffffffffffffffffffffffffffffffffffffffffffffffffffffffff191614155b1515613e4b576040517f08c379a00000000000000000000000000000000000000000000000000000000081526004018080602001828103825260258152602001807f737472696e672063616e6e6f74207374617274206f7220656e6420776974682081526020017f737061636500000000000000000000000000000000000000000000000000000081525060400191505060405180910390fd5b60307f010000000000000000000000000000000000000000000000000000000000000002856000815181101515613e7e57fe5b9060200101517f010000000000000000000000000000000000000000000000000000000000000090047f0100000000000000000000000000000000000000000000000000000000000000027effffffffffffffffffffffffffffffffffffffffffffffffffffffffffffff1916141561411e5760787f010000000000000000000000000000000000000000000000000000000000000002856001815181101515613f2457fe5b9060200101517f010000000000000000000000000000000000000000000000000000000000000090047f0100000000000000000000000000000000000000000000000000000000000000027effffffffffffffffffffffffffffffffffffffffffffffffffffffffffffff191614151515614007576040517f08c379a000000000000000000000000000000000000000000000000000000000815260040180806020018281038252601b8152602001807f737472696e672063616e6e6f742073746172742077697468203078000000000081525060200191505060405180910390fd5b60587f01000000000000000000000000000000000000000000000000000000000000000285600181518110151561403a57fe5b9060200101517f010000000000000000000000000000000000000000000000000000000000000090047f0100000000000000000000000000000000000000000000000000000000000000027effffffffffffffffffffffffffffffffffffffffffffffffffffffffffffff19161415151561411d576040517f08c379a000000000000000000000000000000000000000000000000000000000815260040180806020018281038252601b8152602001807f737472696e672063616e6e6f742073746172742077697468203058000000000081525060200191505060405180910390fd5b5b600091505b83821015614a995760407f010000000000000000000000000000000000000000000000000000000000000002858381518110151561415d57fe5b9060200101517f010000000000000000000000000000000000000000000000000000000000000090047f0100000000000000000000000000000000000000000000000000000000000000027effffffffffffffffffffffffffffffffffffffffffffffffffffffffffffff19161180156142735750605b7f010000000000000000000000000000000000000000000000000000000000000002858381518110151561420457fe5b9060200101517f010000000000000000000000000000000000000000000000000000000000000090047f0100000000000000000000000000000000000000000000000000000000000000027effffffffffffffffffffffffffffffffffffffffffffffffffffffffffffff1916105b1561436e576020858381518110151561428857fe5b9060200101517f010000000000000000000000000000000000000000000000000000000000000090047f0100000000000000000000000000000000000000000000000000000000000000027f01000000000000000000000000000000000000000000000000000000000000009004017f010000000000000000000000000000000000000000000000000000000000000002858381518110151561432757fe5b9060200101907effffffffffffffffffffffffffffffffffffffffffffffffffffffffffffff1916908160001a90535060001515831515141561436957600192505b614a8c565b60207f01000000000000000000000000000000000000000000000000000000000000000285838151811015156143a057fe5b9060200101517f010000000000000000000000000000000000000000000000000000000000000090047f0100000000000000000000000000000000000000000000000000000000000000027effffffffffffffffffffffffffffffffffffffffffffffffffffffffffffff1916148061455d575060607f010000000000000000000000000000000000000000000000000000000000000002858381518110151561444657fe5b9060200101517f010000000000000000000000000000000000000000000000000000000000000090047f0100000000000000000000000000000000000000000000000000000000000000027effffffffffffffffffffffffffffffffffffffffffffffffffffffffffffff191611801561455c5750607b7f01000000000000000000000000000000000000000000000000000000000000000285838151811015156144ed57fe5b9060200101517f010000000000000000000000000000000000000000000000000000000000000090047f0100000000000000000000000000000000000000000000000000000000000000027effffffffffffffffffffffffffffffffffffffffffffffffffffffffffffff1916105b5b806146ac5750602f7f010000000000000000000000000000000000000000000000000000000000000002858381518110151561459557fe5b9060200101517f010000000000000000000000000000000000000000000000000000000000000090047f0100000000000000000000000000000000000000000000000000000000000000027effffffffffffffffffffffffffffffffffffffffffffffffffffffffffffff19161180156146ab5750603a7f010000000000000000000000000000000000000000000000000000000000000002858381518110151561463c57fe5b9060200101517f010000000000000000000000000000000000000000000000000000000000000090047f0100000000000000000000000000000000000000000000000000000000000000027effffffffffffffffffffffffffffffffffffffffffffffffffffffffffffff1916105b5b1515614746576040517f08c379a00000000000000000000000000000000000000000000000000000000081526004018080602001828103825260228152602001807f737472696e6720636f6e7461696e7320696e76616c696420636861726163746581526020017f727300000000000000000000000000000000000000000000000000000000000081525060400191505060405180910390fd5b60207f010000000000000000000000000000000000000000000000000000000000000002858381518110151561477857fe5b9060200101517f010000000000000000000000000000000000000000000000000000000000000090047f0100000000000000000000000000000000000000000000000000000000000000027effffffffffffffffffffffffffffffffffffffffffffffffffffffffffffff1916141561492a5760207f010000000000000000000000000000000000000000000000000000000000000002856001840181518110151561482057fe5b9060200101517f010000000000000000000000000000000000000000000000000000000000000090047f0100000000000000000000000000000000000000000000000000000000000000027effffffffffffffffffffffffffffffffffffffffffffffffffffffffffffff191614151515614929576040517f08c379a00000000000000000000000000000000000000000000000000000000081526004018080602001828103825260288152602001807f737472696e672063616e6e6f7420636f6e7461696e20636f6e7365637574697681526020017f652073706163657300000000000000000000000000000000000000000000000081525060400191505060405180910390fd5b5b60001515831515148015614a81575060307f010000000000000000000000000000000000000000000000000000000000000002858381518110151561496b57fe5b9060200101517f010000000000000000000000000000000000000000000000000000000000000090047f0100000000000000000000000000000000000000000000000000000000000000027effffffffffffffffffffffffffffffffffffffffffffffffffffffffffffff19161080614a80575060397f0100000000000000000000000000000000000000000000000000000000000000028583815181101515614a1157fe5b9060200101517f010000000000000000000000000000000000000000000000000000000000000090047f0100000000000000000000000000000000000000000000000000000000000000027effffffffffffffffffffffffffffffffffffffffffffffffffffffffffffff1916115b5b15614a8b57600192505b5b8180600101925050614123565b60011515831515141515614b15576040517f08c379a000000000000000000000000000000000000000000000000000000000815260040180806020018281038252601d8152602001807f737472696e672063616e6e6f74206265206f6e6c79206e756d6265727300000081525060200191505060405180910390fd5b602085015190508095505050505050919050565b600080600960008473ffffffffffffffffffffffffffffffffffffffff1673ffffffffffffffffffffffffffffffffffffffff168152602001908152602001600020541415614c2a57600860008154809291906001019190505550600854600960008473ffffffffffffffffffffffffffffffffffffffff1673ffffffffffffffffffffffffffffffffffffffff1681526020019081526020016000208190555081600b6000600854815260200190815260200160002060000160006101000a81548173ffffffffffffffffffffffffffffffffffffffff021916908373ffffffffffffffffffffffffffffffffffffffff16021790555060019050614c2f565b600090505b919050565b600080600a6000866000191660001916815260200190815260200160002054141515614d105760011515600c60008981526020019081526020016000206000866000191660001916815260200190815260200160002060009054906101000a900460ff161515141515614d0f576040517f08c379a000000000000000000000000000000000000000000000000000000000815260040180806020018281038252601e8152602001807f736f7272792074686174206e616d657320616c72656164792074616b656e000081525060200191505060405180910390fd5b5b83600b6000898152602001908152602001600020600101816000191690555086600a600086600019166000191681526020019081526020016000208190555060001515600c60008981526020019081526020016000206000866000191660001916815260200190815260200160002060009054906101000a900460ff1615151415614e44576001600c60008981526020019081526020016000206000866000191660001916815260200190815260200160002060006101000a81548160ff021916908315150217905550600b60008881526020019081526020016000206003016000815480929190600101919050555083600d60008981526020019081526020016000206000600b60008b815260200190815260200160002060030154815260200190815260200160002081600019169055505b6000809054906101000a900473ffffffffffffffffffffffffffffffffffffffff1673ffffffffffffffffffffffffffffffffffffffff166108fc3073ffffffffffffffffffffffffffffffffffffffff16319081150290604051600060405180830381858888f19350505050158015614ec2573d6000803e3d6000fd5b50600115158215151415614ff457600190505b60075481111515614ff3576004600082815260200190815260200160002060009054906101000a900473ffffffffffffffffffffffffffffffffffffffff1673ffffffffffffffffffffffffffffffffffffffff166349cc635d888887896040518563ffffffff167c0100000000000000000000000000000000000000000000000000000000028152600401808581526020018473ffffffffffffffffffffffffffffffffffffffff1673ffffffffffffffffffffffffffffffffffffffff1681526020018360001916600019168152602001828152602001945050505050600060405180830381600087803b158015614fce57600080fd5b505af1158015614fe2573d6000803e3d6000fd5b505050508080600101915050614ed5565b5b83600019168673ffffffffffffffffffffffffffffffffffffffff16887fdd6176433ff5026bbce96b068584b7bbe3514227e72df9c630b749ae87e644428689600b60008c815260200190815260200160002060000160009054906101000a900473ffffffffffffffffffffffffffffffffffffffff16600b60008d815260200190815260200160002060010154344260405180871515151581526020018681526020018573ffffffffffffffffffffffffffffffffffffffff1673ffffffffffffffffffffffffffffffffffffffff1681526020018460001916600019168152602001838152602001828152602001965050505050505060405180910390a450505050505050565b60008060008311151561519e576040517f08c379a00000000000000000000000000000000000000000000000000000000081526004018080602001828103825260288152602001807f4d5346756e20636865636b5369676e6572206661696c6564202d2030206e6f7481526020017f20616c6c6f77656400000000000000000000000000000000000000000000000081525060400191505060405180910390fd5b6151a78461535b565b90508460000160008260001916600019168152602001908152602001600020600301600060018503815260200190815260200160002060009054906101000a900473ffffffffffffffffffffffffffffffffffffffff169150509392505050565b6000806152148361535b565b905083600001600082600019166000191681526020019081526020016000206000015491505092915050565b60008061524c8361535b565b905083600001600082600019166000191681526020019081526020016000206001015491505092915050565b60006153466002600160009054906101000a900473ffffffffffffffffffffffffffffffffffffffff1673ffffffffffffffffffffffffffffffffffffffff1663fcf2f85f6040518163ffffffff167c0100000000000000000000000000000000000000000000000000000000028152600401602060405180830381600087803b15801561530557600080fd5b505af1158015615319573d6000803e3d6000fd5b505050506040513d602081101561532f57600080fd5b810190808051906020019092919050505084615431565b9050919050565b615358600282613a11565b50565b600081306040516020018083600019166000191681526020018273ffffffffffffffffffffffffffffffffffffffff1673ffffffffffffffffffffffffffffffffffffffff166c01000000000000000000000000028152601401925050506040516020818303038152906040526040518082805190602001908083835b6020831015156153fd57805182526020820191506020810190506020830392506153d8565b6001836020036101000a03801982511681845116808217855250505050505090500191505060405180910390209050919050565b60008060008060006154428661535b565b93508760000160008560001916600019168152602001908152602001600020600101549250339150600036604051808383808284378201915050925050506040518091039020905060008314156156075780886000016000866000191660001916815260200190815260200160002060000181600019169055506001886000016000866000191660001916815260200190815260200160002060020160008473ffffffffffffffffffffffffffffffffffffffff1673ffffffffffffffffffffffffffffffffffffffff16815260200190815260200160002060006101000a81548160ff021916908315150217905550818860000160008660001916600019168152602001908152602001600020600301600085815260200190815260200160002060006101000a81548173ffffffffffffffffffffffffffffffffffffffff021916908373ffffffffffffffffffffffffffffffffffffffff160217905550600188600001600086600019166000191681526020019081526020016000206001016000828254019250508190555086886000016000866000191660001916815260200190815260200160002060010154141561560257600194506157f8565b6157f7565b80600019168860000160008660001916600019168152602001908152602001600020600001546000191614156157f65760001515886000016000866000191660001916815260200190815260200160002060020160008473ffffffffffffffffffffffffffffffffffffffff1673ffffffffffffffffffffffffffffffffffffffff16815260200190815260200160002060009054906101000a900460ff16151514156157c4576001886000016000866000191660001916815260200190815260200160002060020160008473ffffffffffffffffffffffffffffffffffffffff1673ffffffffffffffffffffffffffffffffffffffff16815260200190815260200160002060006101000a81548160ff021916908315150217905550818860000160008660001916600019168152602001908152602001600020600301600085815260200190815260200160002060006101000a81548173ffffffffffffffffffffffffffffffffffffffff021916908373ffffffffffffffffffffffffffffffffffffffff16021790555060018860000160008660001916600019168152602001908152602001600020600101600082825401925050819055505b8688600001600086600019166000191681526020019081526020016000206001015414156157f557600194506157f8565b5b5b5b5050505093925050505600a165627a7a7230582047e720a9bc46828bb31cb805bbe77a15fcd200a68846eca21ffc5e79a8a765020029",
  "source": "pragma solidity ^0.4.24;\n/*\n * -PlayerBook - v0.3.14\n *       \n *                \n *               \n *                                  _____                      _____\n *                                 (, /     /)       /) /)    (, /      /)          /)\n *                                /   _ (/_      // //       /  _   // _   __  _(/\n *                            ___/___(/_/(__(_/_(/_(/_   ___/__/_)_(/_(_(_/ (_(_(_\n *                           /   /          .-/ _____   (__ /\n *                            (__ /          (_/ (, /                                      /)\n *                                                 /  __  __ __ __  _   __ __  _  _/_ _  _(/\n *                            /__/ (_(__(_)/ (_/_)_(_)/ (_(_(_(__(/_(_(_\n *                             (__ /              .-/   Jekyll Island Inc. 2018\n *                                            (_/\n *     ______   _                                 ______                 _          \n *====(_____ \\=| |===============================(____  \\===============| |=============*\n *     _____) )| |  _____  _   _  _____   ____    ____)  )  ___    ___  | |  _\n *    |  ____/ | | (____ || | | || ___ | / ___)  |  __  (  / _ \\  / _ \\ | |_/ )\n *    | |      | | / ___ || |_| || ____|| |      | |__)  )| |_| || |_| ||  _ (\n *====|_|=======\\_)\\_____|=\\__  ||_____)|_|======|______/==\\___/==\\___/=|_|=\\_)=========*\n *                        (____/\n *                           \n *                   Inventor                       \n *             \n */\n\nimport \"./library/SafeMath.sol\";\nimport \"./library/NameFilter.sol\";\nimport \"./library/MSFun.sol\";\n\nimport \"./interface/TeamJustInterface.sol\";\nimport \"./interface/PlayerBookReceiverInterface.sol\";\nimport \"./interface/PlayerBookInterface.sol\";\n\nimport \"./TeamJust.sol\";\n\n\ncontract PlayerBook is PlayerBookInterface {\n    using NameFilter for string;\n    using SafeMath for uint256;\n\n    address private Jekyll_Island_Inc;\n    address public teamJust;// = new TeamJustInterface();\n\n    MSFun.Data private msData;\n\n    function multiSigDev(bytes32 _whatFunction) private returns (bool) {return (MSFun.multiSig(msData, TeamJustInterface(teamJust).requiredDevSignatures(), _whatFunction));}\n\n    function deleteProposal(bytes32 _whatFunction) private {MSFun.deleteProposal(msData, _whatFunction);}\n\n    function deleteAnyProposal(bytes32 _whatFunction) onlyDevs() public {MSFun.deleteProposal(msData, _whatFunction);}\n\n    function checkData(bytes32 _whatFunction) onlyDevs() public view returns (bytes32, uint256) {return (MSFun.checkMsgData(msData, _whatFunction), MSFun.checkCount(msData, _whatFunction));}\n\n    function checkSignersByAddress(bytes32 _whatFunction, uint256 _signerA, uint256 _signerB, uint256 _signerC) onlyDevs() public view returns (address, address, address) {return (MSFun.checkSigner(msData, _whatFunction, _signerA), MSFun.checkSigner(msData, _whatFunction, _signerB), MSFun.checkSigner(msData, _whatFunction, _signerC));}\n\n    function checkSignersByName(bytes32 _whatFunction, uint256 _signerA, uint256 _signerB, uint256 _signerC) onlyDevs() public view returns (bytes32, bytes32, bytes32) {return (TeamJustInterface(teamJust).adminName(MSFun.checkSigner(msData, _whatFunction, _signerA)), TeamJustInterface(teamJust).adminName(MSFun.checkSigner(msData, _whatFunction, _signerB)), TeamJustInterface(teamJust).adminName(MSFun.checkSigner(msData, _whatFunction, _signerC)));}\n    //==============================================================================\n    //     _| _ _|_ _    _ _ _|_    _   .\n    //    (_|(_| | (_|  _\\(/_ | |_||_)  .\n    //=============================|================================================\n    uint256 public registrationFee_ = 10 finney;            // price to register a name\n    mapping(uint256 => address) public games_;  // mapping of our game interfaces for sending your account info to games\n    mapping(address => bytes32) public gameNames_;          // lookup a games name\n    mapping(address => uint256) public gameIDs_;            // lokup a games ID\n    uint256 public gID_;        // total number of games\n    uint256 public pID_;        // total number of players\n    mapping(address => uint256) public pIDxAddr_;          // (addr => pID) returns player id by address\n    mapping(bytes32 => uint256) public pIDxName_;          // (name => pID) returns player id by name\n    mapping(uint256 => Player) public plyr_;               // (pID => data) player data\n    mapping(uint256 => mapping(bytes32 => bool)) public plyrNames_; // (pID => name => bool) list of names a player owns.  (used so you can change your display name amoungst any name you own)\n    mapping(uint256 => mapping(uint256 => bytes32)) public plyrNameList_; // (pID => nameNum => name) list of names a player owns\n    struct Player {\n        address addr;\n        bytes32 name;\n        uint256 laff;\n        uint256 names;\n    }\n\n    address public owner;\n\n    function setTeam(address _teamJust) external {\n        require(msg.sender == owner, 'only dev!');\n        require(address(teamJust) == address(0), 'already set!');\n        teamJust = _teamJust;\n    }\n    //==============================================================================\n    //     _ _  _  __|_ _    __|_ _  _  .\n    //    (_(_)| |_\\ | | |_|(_ | (_)|   .  (initial data setup upon contract deploy)\n    //==============================================================================\n    constructor()\n    public\n    {\n        owner = msg.sender;\n        // premine the dev names (sorry not sorry)\n        // No keys are purchased with this method, it's simply locking our addresses,\n        // PID's and names for referral codes.\n        plyr_[1].addr = msg.sender;\n        plyr_[1].name = \"wq\";\n        plyr_[1].names = 1;\n        pIDxAddr_[msg.sender] = 1;\n        pIDxName_[\"wq\"] = 1;\n        plyrNames_[1][\"wq\"] = true;\n        plyrNameList_[1][1] = \"wq\";\n\n        pID_ = 1;\n        Jekyll_Island_Inc = msg.sender;\n    }\n    //==============================================================================\n    //     _ _  _  _|. |`. _  _ _  .\n    //    | | |(_)(_||~|~|(/_| _\\  .  (these are safety checks)\n    //==============================================================================\n    /**\n     * @dev prevents contracts from interacting with fomo3d \n     */\n    modifier isHuman() {\n        address _addr = msg.sender;\n        uint256 _codeLength;\n\n        assembly {_codeLength := extcodesize(_addr)}\n        require(_codeLength == 0, \"sorry humans only\");\n        _;\n    }\n\n    modifier onlyDevs()\n    {\n        require(TeamJustInterface(teamJust).isDev(msg.sender) == true, \"msg sender is not a dev\");\n        _;\n    }\n\n    modifier isRegisteredGame()\n    {\n        require(gameIDs_[msg.sender] != 0);\n        _;\n    }\n    //==============================================================================\n    //     _    _  _ _|_ _  .\n    //    (/_\\/(/_| | | _\\  .\n    //==============================================================================\n    // fired whenever a player registers a name\n    event onNewName\n    (\n        uint256 indexed playerID,\n        address indexed playerAddress,\n        bytes32 indexed playerName,\n        bool isNewPlayer,\n        uint256 affiliateID,\n        address affiliateAddress,\n        bytes32 affiliateName,\n        uint256 amountPaid,\n        uint256 timeStamp\n    );\n    //==============================================================================\n    //     _  _ _|__|_ _  _ _  .\n    //    (_|(/_ |  | (/_| _\\  . (for UI & viewing things on etherscan)\n    //=====_|=======================================================================\n    function checkIfNameValid(string _nameStr)\n    public\n    view\n    returns (bool)\n    {\n        bytes32 _name = _nameStr.nameFilter();\n        if (pIDxName_[_name] == 0)\n            return (true);\n        else\n            return (false);\n    }\n    //==============================================================================\n    //     _    |_ |. _   |`    _  __|_. _  _  _  .\n    //    |_)|_||_)||(_  ~|~|_|| |(_ | |(_)| |_\\  .  (use these to interact with contract)\n    //====|=========================================================================\n    /**\n     * @dev registers a name.  UI will always display the last name you registered.\n     * but you will still own all previously registered names to use as affiliate \n     * links.\n     * - must pay a registration fee.\n     * - name must be unique\n     * - names will be converted to lowercase\n     * - name cannot start or end with a space \n     * - cannot have more than 1 space in a row\n     * - cannot be only numbers\n     * - cannot start with 0x \n     * - name must be at least 1 char\n     * - max length of 32 characters long\n     * - allowed characters: a-z, 0-9, and space\n     * -functionhash- 0x921dec21 (using ID for affiliate)\n     * -functionhash- 0x3ddd4698 (using address for affiliate)\n     * -functionhash- 0x685ffd83 (using name for affiliate)\n     * @param _nameString players desired name\n     * @param _affCode affiliate ID, address, or name of who refered you\n     * @param _all set to true if you want this to push your info to all games \n     * (this might cost a lot of gas)\n     */\n    function registerNameXID(string _nameString, uint256 _affCode, bool _all)\n    isHuman()\n    public\n    payable\n    {\n        // make sure name fees paid\n        require(msg.value >= registrationFee_, \"umm.....  you have to pay the name fee\");\n\n        // filter name + condition checks\n        bytes32 _name = NameFilter.nameFilter(_nameString);\n\n        // set up address \n        address _addr = msg.sender;\n\n        // set up our tx event data and determine if player is new or not\n        bool _isNewPlayer = determinePID(_addr);\n\n        // fetch player id\n        uint256 _pID = pIDxAddr_[_addr];\n\n        // manage affiliate residuals\n        // if no affiliate code was given, no new affiliate code was given, or the \n        // player tried to use their own pID as an affiliate code, lolz\n        if (_affCode != 0 && _affCode != plyr_[_pID].laff && _affCode != _pID)\n        {\n            // update last affiliate \n            plyr_[_pID].laff = _affCode;\n        } else if (_affCode == _pID) {\n            _affCode = 0;\n        }\n\n        // register name \n        registerNameCore(_pID, _addr, _affCode, _name, _isNewPlayer, _all);\n    }\n\n    function registerNameXaddr(string _nameString, address _affCode, bool _all)\n    isHuman()\n    public\n    payable\n    {\n        // make sure name fees paid\n        require(msg.value >= registrationFee_, \"umm.....  you have to pay the name fee\");\n\n        // filter name + condition checks\n        bytes32 _name = NameFilter.nameFilter(_nameString);\n\n        // set up address \n        address _addr = msg.sender;\n\n        // set up our tx event data and determine if player is new or not\n        bool _isNewPlayer = determinePID(_addr);\n\n        // fetch player id\n        uint256 _pID = pIDxAddr_[_addr];\n\n        // manage affiliate residuals\n        // if no affiliate code was given or player tried to use their own, lolz\n        uint256 _affID;\n        if (_affCode != address(0) && _affCode != _addr)\n        {\n            // get affiliate ID from aff Code \n            _affID = pIDxAddr_[_affCode];\n\n            // if affID is not the same as previously stored \n            if (_affID != plyr_[_pID].laff)\n            {\n                // update last affiliate\n                plyr_[_pID].laff = _affID;\n            }\n        }\n\n        // register name \n        registerNameCore(_pID, _addr, _affID, _name, _isNewPlayer, _all);\n    }\n\n    function registerNameXname(string _nameString, bytes32 _affCode, bool _all)\n    isHuman()\n    public\n    payable\n    {\n        // make sure name fees paid\n        require(msg.value >= registrationFee_, \"umm.....  you have to pay the name fee\");\n\n        // filter name + condition checks\n        bytes32 _name = NameFilter.nameFilter(_nameString);\n\n        // set up address \n        address _addr = msg.sender;\n\n        // set up our tx event data and determine if player is new or not\n        bool _isNewPlayer = determinePID(_addr);\n\n        // fetch player id\n        uint256 _pID = pIDxAddr_[_addr];\n\n        // manage affiliate residuals\n        // if no affiliate code was given or player tried to use their own, lolz\n        uint256 _affID;\n        if (_affCode != \"\" && _affCode != _name)\n        {\n            // get affiliate ID from aff Code \n            _affID = pIDxName_[_affCode];\n\n            // if affID is not the same as previously stored \n            if (_affID != plyr_[_pID].laff)\n            {\n                // update last affiliate\n                plyr_[_pID].laff = _affID;\n            }\n        }\n\n        // register name \n        registerNameCore(_pID, _addr, _affID, _name, _isNewPlayer, _all);\n    }\n\n    /**\n     * @dev players, if you registered a profile, before a game was released, or\n     * set the all bool to false when you registered, use this function to push\n     * your profile to a single game.  also, if you've  updated your name, you\n     * can use this to push your name to games of your choosing.\n     * -functionhash- 0x81c5b206\n     * @param _gameID game id \n     */\n    function addMeToGame(uint256 _gameID)\n    isHuman()\n    public\n    {\n        require(_gameID <= gID_, \"silly player, that game doesn't exist yet\");\n        address _addr = msg.sender;\n        uint256 _pID = pIDxAddr_[_addr];\n        require(_pID != 0, \"hey there buddy, you dont even have an account\");\n        uint256 _totalNames = plyr_[_pID].names;\n\n        // add players profile and most recent name\n        PlayerBookReceiverInterface(games_[_gameID]).receivePlayerInfo(_pID, _addr, plyr_[_pID].name, plyr_[_pID].laff);\n\n        // add list of all names\n        if (_totalNames > 1)\n            for (uint256 ii = 1; ii <= _totalNames; ii++)\n                PlayerBookReceiverInterface(games_[_gameID]).receivePlayerNameList(_pID, plyrNameList_[_pID][ii]);\n    }\n\n    /**\n     * @dev players, use this to push your player profile to all registered games.\n     * -functionhash- 0x0c6940ea\n     */\n    function addMeToAllGames()\n    isHuman()\n    public\n    {\n        address _addr = msg.sender;\n        uint256 _pID = pIDxAddr_[_addr];\n        require(_pID != 0, \"hey there buddy, you dont even have an account\");\n        uint256 _laff = plyr_[_pID].laff;\n        uint256 _totalNames = plyr_[_pID].names;\n        bytes32 _name = plyr_[_pID].name;\n\n        for (uint256 i = 1; i <= gID_; i++)\n        {\n            PlayerBookReceiverInterface(games_[i]).receivePlayerInfo(_pID, _addr, _name, _laff);\n            if (_totalNames > 1)\n                for (uint256 ii = 1; ii <= _totalNames; ii++)\n                    PlayerBookReceiverInterface(games_[i]).receivePlayerNameList(_pID, plyrNameList_[_pID][ii]);\n        }\n\n    }\n\n    /**\n     * @dev players use this to change back to one of your old names.  tip, you'll\n     * still need to push that info to existing games.\n     * -functionhash- 0xb9291296\n     * @param _nameString the name you want to use \n     */\n    function useMyOldName(string _nameString)\n    isHuman()\n    public\n    {\n        // filter name, and get pID\n        bytes32 _name = _nameString.nameFilter();\n        uint256 _pID = pIDxAddr_[msg.sender];\n\n        // make sure they own the name \n        require(plyrNames_[_pID][_name] == true, \"umm... thats not a name you own\");\n\n        // update their current name \n        plyr_[_pID].name = _name;\n    }\n\n    //==============================================================================\n    //     _ _  _ _   | _  _ . _  .\n    //    (_(_)| (/_  |(_)(_||(_  .\n    //=====================_|=======================================================\n    function registerNameCore(uint256 _pID, address _addr, uint256 _affID, bytes32 _name, bool _isNewPlayer, bool _all)\n    private\n    {\n        // if names already has been used, require that current msg sender owns the name\n        if (pIDxName_[_name] != 0)\n            require(plyrNames_[_pID][_name] == true, \"sorry that names already taken\");\n\n        // add name to player profile, registry, and name book\n        plyr_[_pID].name = _name;\n        pIDxName_[_name] = _pID;\n        if (plyrNames_[_pID][_name] == false)\n        {\n            plyrNames_[_pID][_name] = true;\n            plyr_[_pID].names++;\n            plyrNameList_[_pID][plyr_[_pID].names] = _name;\n        }\n\n        // registration fee goes directly to community rewards\n        Jekyll_Island_Inc.transfer(address(this).balance);\n\n        // push player info to games\n        if (_all == true)\n            for (uint256 i = 1; i <= gID_; i++)\n                PlayerBookReceiverInterface(games_[i]).receivePlayerInfo(_pID, _addr, _name, _affID);\n\n        // fire event\n        emit onNewName(_pID, _addr, _name, _isNewPlayer, _affID, plyr_[_affID].addr, plyr_[_affID].name, msg.value, now);\n    }\n    //==============================================================================\n    //    _|_ _  _ | _  .\n    //     | (_)(_)|_\\  .\n    //==============================================================================\n    function determinePID(address _addr)\n    private\n    returns (bool)\n    {\n        if (pIDxAddr_[_addr] == 0)\n        {\n            pID_++;\n            pIDxAddr_[_addr] = pID_;\n            plyr_[pID_].addr = _addr;\n\n            // set the new player bool to true\n            return (true);\n        } else {\n            return (false);\n        }\n    }\n    //==============================================================================\n    //   _   _|_ _  _ _  _ |   _ _ || _  .\n    //  (/_>< | (/_| | |(_||  (_(_|||_\\  .\n    //==============================================================================\n    function getPlayerID(address _addr)\n    isRegisteredGame()\n    external\n    returns (uint256)\n    {\n        determinePID(_addr);\n        return (pIDxAddr_[_addr]);\n    }\n\n    function getPlayerName(uint256 _pID)\n    external\n    view\n    returns (bytes32)\n    {\n        return (plyr_[_pID].name);\n    }\n\n    function getPlayerLAff(uint256 _pID)\n    external\n    view\n    returns (uint256)\n    {\n        return (plyr_[_pID].laff);\n    }\n\n    function getPlayerAddr(uint256 _pID)\n    external\n    view\n    returns (address)\n    {\n        return (plyr_[_pID].addr);\n    }\n\n    function getNameFee()\n    external\n    view\n    returns (uint256)\n    {\n        return (registrationFee_);\n    }\n\n    function registerNameXIDFromDapp(address _addr, bytes32 _name, uint256 _affCode, bool _all)\n    isRegisteredGame()\n    external\n    payable\n    returns (bool, uint256)\n    {\n        // make sure name fees paid\n        require(msg.value >= registrationFee_, \"umm.....  you have to pay the name fee\");\n\n        // set up our tx event data and determine if player is new or not\n        bool _isNewPlayer = determinePID(_addr);\n\n        // fetch player id\n        uint256 _pID = pIDxAddr_[_addr];\n\n        // manage affiliate residuals\n        // if no affiliate code was given, no new affiliate code was given, or the \n        // player tried to use their own pID as an affiliate code, lolz\n        uint256 _affID = _affCode;\n        if (_affID != 0 && _affID != plyr_[_pID].laff && _affID != _pID)\n        {\n            // update last affiliate \n            plyr_[_pID].laff = _affID;\n        } else if (_affID == _pID) {\n            _affID = 0;\n        }\n\n        // register name \n        registerNameCore(_pID, _addr, _affID, _name, _isNewPlayer, _all);\n\n        return (_isNewPlayer, _affID);\n    }\n\n    function registerNameXaddrFromDapp(address _addr, bytes32 _name, address _affCode, bool _all)\n    isRegisteredGame()\n    external\n    payable\n    returns (bool, uint256)\n    {\n        // make sure name fees paid\n        require(msg.value >= registrationFee_, \"umm.....  you have to pay the name fee\");\n\n        // set up our tx event data and determine if player is new or not\n        bool _isNewPlayer = determinePID(_addr);\n\n        // fetch player id\n        uint256 _pID = pIDxAddr_[_addr];\n\n        // manage affiliate residuals\n        // if no affiliate code was given or player tried to use their own, lolz\n        uint256 _affID;\n        if (_affCode != address(0) && _affCode != _addr)\n        {\n            // get affiliate ID from aff Code \n            _affID = pIDxAddr_[_affCode];\n\n            // if affID is not the same as previously stored \n            if (_affID != plyr_[_pID].laff)\n            {\n                // update last affiliate\n                plyr_[_pID].laff = _affID;\n            }\n        }\n\n        // register name \n        registerNameCore(_pID, _addr, _affID, _name, _isNewPlayer, _all);\n\n        return (_isNewPlayer, _affID);\n    }\n\n    function registerNameXnameFromDapp(address _addr, bytes32 _name, bytes32 _affCode, bool _all)\n    isRegisteredGame()\n    external\n    payable\n    returns (bool, uint256)\n    {\n        // make sure name fees paid\n        require(msg.value >= registrationFee_, \"umm.....  you have to pay the name fee\");\n\n        // set up our tx event data and determine if player is new or not\n        bool _isNewPlayer = determinePID(_addr);\n\n        // fetch player id\n        uint256 _pID = pIDxAddr_[_addr];\n\n        // manage affiliate residuals\n        // if no affiliate code was given or player tried to use their own, lolz\n        uint256 _affID;\n        if (_affCode != \"\" && _affCode != _name)\n        {\n            // get affiliate ID from aff Code \n            _affID = pIDxName_[_affCode];\n\n            // if affID is not the same as previously stored \n            if (_affID != plyr_[_pID].laff)\n            {\n                // update last affiliate\n                plyr_[_pID].laff = _affID;\n            }\n        }\n\n        // register name \n        registerNameCore(_pID, _addr, _affID, _name, _isNewPlayer, _all);\n\n        return (_isNewPlayer, _affID);\n    }\n\n    //==============================================================================\n    //   _ _ _|_    _   .\n    //  _\\(/_ | |_||_)  .\n    //=============|================================================================\n    function addGame(address _gameAddress, bytes32 _gameNameStr)\n    onlyDevs()\n    external\n    {\n        require(gameIDs_[_gameAddress] == 0, \"derp, that games already been registered\");\n\n        if (multiSigDev(\"addGame\") == true)\n        {deleteProposal(\"addGame\");\n            gID_++;\n            bytes32 _name = _gameNameStr;\n            gameIDs_[_gameAddress] = gID_;\n            gameNames_[_gameAddress] = _name;\n            games_[gID_] = _gameAddress;\n\n//            PlayerBookReceiverInterface(games_[gID_]).receivePlayerInfo(1, plyr_[1].addr, plyr_[1].name, 0);\n\n        }\n    }\n\n    function setRegistrationFee(uint256 _fee)\n    onlyDevs()\n    public\n    {\n        if (multiSigDev(\"setRegistrationFee\") == true)\n        {deleteProposal(\"setRegistrationFee\");\n            registrationFee_ = _fee;\n        }\n    }\n\n    function isDev(address _who) external view returns(bool) {return TeamJustInterface(teamJust).isDev(_who);}\n\n}",
  "sourcePath": "/Users/ch/Dapp/Vue-Dapp/contracts/PlayerBook.sol",
  "compiler": {
    "name": "solc",
    "version": "0.4.24+commit.e67f0147.Emscripten.clang"
  },
  "schemaVersion": "2.0.1",
  "updatedAt": "2018-11-08T02:57:58.480Z"
}