{
  "contractName": "TodoList",
  "abi": [
    {
      "constant": true,
      "inputs": [],
      "name": "maxAmountOfTodos",
      "outputs": [
        {
          "name": "",
          "type": "uint256"
        }
      ],
      "payable": false,
      "stateMutability": "view",
      "type": "function"
    },
    {
      "constant": true,
      "inputs": [
        {
          "name": "",
          "type": "address"
        },
        {
          "name": "",
          "type": "uint256"
        }
      ],
      "name": "todos",
      "outputs": [
        {
          "name": "id",
          "type": "uint256"
        },
        {
          "name": "content",
          "type": "bytes32"
        },
        {
          "name": "owner",
          "type": "address"
        },
        {
          "name": "isCompleted",
          "type": "bool"
        },
        {
          "name": "timestamp",
          "type": "uint256"
        }
      ],
      "payable": false,
      "stateMutability": "view",
      "type": "function"
    },
    {
      "constant": true,
      "inputs": [
        {
          "name": "",
          "type": "address"
        }
      ],
      "name": "lastIds",
      "outputs": [
        {
          "name": "",
          "type": "uint256"
        }
      ],
      "payable": false,
      "stateMutability": "view",
      "type": "function"
    },
    {
      "constant": false,
      "inputs": [
        {
          "name": "_content",
          "type": "bytes32"
        }
      ],
      "name": "addTodo",
      "outputs": [],
      "payable": false,
      "stateMutability": "nonpayable",
      "type": "function"
    },
    {
      "constant": false,
      "inputs": [
        {
          "name": "_todoId",
          "type": "uint256"
        }
      ],
      "name": "markTodoAsCompleted",
      "outputs": [],
      "payable": false,
      "stateMutability": "nonpayable",
      "type": "function"
    },
    {
      "constant": true,
      "inputs": [
        {
          "name": "indexes",
          "type": "uint256[]"
        }
      ],
      "name": "returnAllTodos",
      "outputs": [
        {
          "name": "",
          "type": "uint256[]"
        },
        {
          "name": "",
          "type": "bytes32[]"
        },
        {
          "name": "",
          "type": "address[]"
        },
        {
          "name": "",
          "type": "bool[]"
        },
        {
          "name": "",
          "type": "uint256[]"
        }
      ],
      "payable": false,
      "stateMutability": "view",
      "type": "function"
    }
  ],
  "bytecode": "0x608060405234801561001057600080fd5b50610bb6806100206000396000f300608060405260043610610078576000357c0100000000000000000000000000000000000000000000000000000000900463ffffffff1680632c858bb01461007d578063332494a61461022d578063428c188914610258578063a74749181461030d578063aaed706a14610364578063da2f646014610391575b600080fd5b34801561008957600080fd5b506100b66004803603810190808035906020019082018035906020019190919293919293905050506103c2565b60405180806020018060200180602001806020018060200186810386528b818151815260200191508051906020019060200280838360005b838110156101095780820151818401526020810190506100ee565b5050505090500186810385528a818151815260200191508051906020019060200280838360005b8381101561014b578082015181840152602081019050610130565b50505050905001868103845289818151815260200191508051906020019060200280838360005b8381101561018d578082015181840152602081019050610172565b50505050905001868103835288818151815260200191508051906020019060200280838360005b838110156101cf5780820151818401526020810190506101b4565b50505050905001868103825287818151815260200191508051906020019060200280838360005b838110156102115780820151818401526020810190506101f6565b505050509050019a505050505050505050505060405180910390f35b34801561023957600080fd5b5061024261067c565b6040518082815260200191505060405180910390f35b34801561026457600080fd5b506102a3600480360381019080803573ffffffffffffffffffffffffffffffffffffffff16906020019092919080359060200190929190505050610682565b6040518086815260200185600019166000191681526020018473ffffffffffffffffffffffffffffffffffffffff1673ffffffffffffffffffffffffffffffffffffffff168152602001831515151581526020018281526020019550505050505060405180910390f35b34801561031957600080fd5b5061034e600480360381019080803573ffffffffffffffffffffffffffffffffffffffff1690602001909291905050506106f8565b6040518082815260200191505060405180910390f35b34801561037057600080fd5b5061038f60048036038101908080359060200190929190505050610710565b005b34801561039d57600080fd5b506103c060048036038101908080356000191690602001909291905050506108ab565b005b6060806060806060806060806060806000808d8d90506040519080825280602002602001820160405280156104065781602001602082028038833980820191505090505b5096508d8d905060405190808252806020026020018201604052801561043b5781602001602082028038833980820191505090505b5095508d8d90506040519080825280602002602001820160405280156104705781602001602082028038833980820191505090505b5094508d8d90506040519080825280602002602001820160405280156104a55781602001602082028038833980820191505090505b5093508d8d90506040519080825280602002602001820160405280156104da5781602001602082028038833980820191505090505b509250600091505b8d8d905082101561065c576000803373ffffffffffffffffffffffffffffffffffffffff1673ffffffffffffffffffffffffffffffffffffffff168152602001908152602001600020826103e88110151561053957fe5b6004020190508060000154878381518110151561055257fe5b90602001906020020181815250508060010154868381518110151561057357fe5b9060200190602002019060001916908160001916815250508060020160009054906101000a900473ffffffffffffffffffffffffffffffffffffffff1685838151811015156105be57fe5b9060200190602002019073ffffffffffffffffffffffffffffffffffffffff16908173ffffffffffffffffffffffffffffffffffffffff16815250508060020160149054906101000a900460ff16848381518110151561061a57fe5b90602001906020020190151590811515815250508060030154838381518110151561064157fe5b906020019060200201818152505081806001019250506104e2565b86868686869b509b509b509b509b50505050505050509295509295909350565b6103e881565b6000602052816000526040600020816103e88110151561069e57fe5b60040201600091509150508060000154908060010154908060020160009054906101000a900473ffffffffffffffffffffffffffffffffffffffff16908060020160149054906101000a900460ff16908060030154905085565b60016020528060005260406000206000915090505481565b6000803373ffffffffffffffffffffffffffffffffffffffff1673ffffffffffffffffffffffffffffffffffffffff168152602001908152602001600020816103e88110151561075c57fe5b6004020160020160009054906101000a900473ffffffffffffffffffffffffffffffffffffffff168073ffffffffffffffffffffffffffffffffffffffff163373ffffffffffffffffffffffffffffffffffffffff161415156107be57600080fd5b6103e8821015156107ce57600080fd5b6000803373ffffffffffffffffffffffffffffffffffffffff1673ffffffffffffffffffffffffffffffffffffffff168152602001908152602001600020826103e88110151561081a57fe5b6004020160020160149054906101000a900460ff1615151561083b57600080fd5b60016000803373ffffffffffffffffffffffffffffffffffffffff1673ffffffffffffffffffffffffffffffffffffffff168152602001908152602001600020836103e88110151561088957fe5b6004020160020160146101000a81548160ff0219169083151502179055505050565b6108b3610b3f565b60a060405190810160405280600160003373ffffffffffffffffffffffffffffffffffffffff1673ffffffffffffffffffffffffffffffffffffffff168152602001908152602001600020548152602001836000191681526020013373ffffffffffffffffffffffffffffffffffffffff168152602001600015158152602001428152509050806000803373ffffffffffffffffffffffffffffffffffffffff1673ffffffffffffffffffffffffffffffffffffffff168152602001908152602001600020600160003373ffffffffffffffffffffffffffffffffffffffff1673ffffffffffffffffffffffffffffffffffffffff168152602001908152602001600020546103e8811015156109c557fe5b60040201600082015181600001556020820151816001019060001916905560408201518160020160006101000a81548173ffffffffffffffffffffffffffffffffffffffff021916908373ffffffffffffffffffffffffffffffffffffffff16021790555060608201518160020160146101000a81548160ff021916908315150217905550608082015181600301559050506103e8600160003373ffffffffffffffffffffffffffffffffffffffff1673ffffffffffffffffffffffffffffffffffffffff16815260200190815260200160002054101515610aeb576000600160003373ffffffffffffffffffffffffffffffffffffffff1673ffffffffffffffffffffffffffffffffffffffff16815260200190815260200160002081905550610b3b565b600160003373ffffffffffffffffffffffffffffffffffffffff1673ffffffffffffffffffffffffffffffffffffffff168152602001908152602001600020600081548092919060010191905055505b5050565b60a0604051908101604052806000815260200160008019168152602001600073ffffffffffffffffffffffffffffffffffffffff1681526020016000151581526020016000815250905600a165627a7a72305820f8333046c1e1923b8eb30753448ea62ca4ab956e08b16059403e073b207926360029",
  "source": "pragma solidity ^0.4.24;\n/// @author David Li\n/// @notice Stores a todolist on solidity, since an array of structs cannot easily be returned\n/// the structs must be decomposed on the front-end\n/// @dev simple todolist contains id, content, owner, isCompleted and unix timestamp\n/// @dev one way to create a \"trello\" like application would require creating more modifiers and perhaps\n/// role based access control.\ncontract TodoList {\n  struct Todo {\n    uint256 id;\n    bytes32 content;\n    address owner;\n    bool isCompleted;\n    uint256 timestamp;\n  }\n  uint256 public constant maxAmountOfTodos = 1000;\n  // Owner => todos\n  mapping(address => Todo[maxAmountOfTodos]) public todos;\n  // Owner => last todo id\n  mapping(address => uint256) public lastIds;\n  modifier onlyOwner(address _owner) {\n    require(msg.sender == _owner);\n    _;\n  }\n\n  /// @dev Add a todo to the list\n  /// @param _content bytes32 todo item, this must be short\n  /// @notice updates mappings todos and lastIds\n  function addTodo(bytes32 _content) public {\n    Todo memory myNote = Todo(lastIds[msg.sender], _content, msg.sender, false, now);\n    todos[msg.sender][lastIds[msg.sender]] = myNote;\n    if(lastIds[msg.sender] >= maxAmountOfTodos) lastIds[msg.sender] = 0;\n    else lastIds[msg.sender]++;\n  }\n  /// @dev Add a todo to the list\n  /// @param _todoId todo item owned by only to mark as complete\n  /// @notice Mark a todo as completed\n  /// @dev only the todo item owner can mark the todo as complete\n  function markTodoAsCompleted(uint256 _todoId) public onlyOwner(todos[msg.sender][_todoId].owner) {\n    require(_todoId < maxAmountOfTodos);\n    require(!todos[msg.sender][_todoId].isCompleted);\n    todos[msg.sender][_todoId].isCompleted = true;\n  }\n  \n  /// @dev get number of specified todos\n  /// @dev consider renamng this function to returnTodos\n  /// @param indexes array of uints corresponding to the number of todos\n  /// @return decomposed arrays that mirror the struct.\n  function returnAllTodos(uint[] indexes) external view\n  returns (\n      uint256[],\n      bytes32[],\n      address[],\n      bool[],\n      uint256[]\n  )\n  {\n    uint256[] memory ids          = new uint256[](indexes.length);\n    bytes32[] memory contents     = new bytes32[](indexes.length);\n    address[] memory owners       = new address[](indexes.length);\n    bool[]    memory isCompleteds = new bool[](indexes.length);\n    uint256[] memory timestamps   = new uint256[](indexes.length);\n      \n    for (uint256 i = 0; i < indexes.length; i++) {\n      Todo storage todoitem = todos[msg.sender][i];\n      ids[i] = todoitem.id;\n      contents[i] = todoitem.content;\n      owners[i] = todoitem.owner;\n      isCompleteds[i] = todoitem.isCompleted;\n      timestamps[i] = todoitem.timestamp;\n    }\n    return (ids, contents, owners, isCompleteds, timestamps);\n  }\n}",
  "sourcePath": "/Users/ch/Dapp/Vue-Dapp/contracts/TodoList.sol",
  "compiler": {
    "name": "solc",
    "version": "0.4.24+commit.e67f0147.Emscripten.clang"
  },
  "schemaVersion": "2.0.1",
  "updatedAt": "2018-11-08T02:57:58.323Z"
}